:020000040800F2
:10000000D006002099010008A1010008A301000802
:10001000A5010008A7010008A901000800000000D0
:10002000000000000000000000000000AB0100081C
:10003000AD01000800000000AF010008B101000898
:10004000B3010008B3010008B3010008B3010008C0
:10005000B3010008B3010008B3010008B3010008B0
:10006000B3010008B3010008B3010008B3010008A0
:10007000B3010008B3010008B3010008B301000890
:10008000B3010008B3010008B3010008B301000880
:10009000B3010008B3010008B3010008B301000870
:1000A000B3010008B3010008B3010008B301000860
:1000B000B3010008B3010008B3010008B301000850
:1000C000B3010008B3010008B3010008B301000840
:1000D000B3010008E1080008B3010008B3010008FB
:1000E000B3010008B3010008B301000800F002F8F2
:1000F00000F042F814A696E8000CB244B344DA4586
:1001000001D100F039F8BAE80F000FA696E83000E8
:10011000A5EB040504EB0607AAEB0704A7F101070A
:100120004FEA15154FEA3414A4F10104AC4201D38F
:1001300000F022F813F0010F18BFFB1A43F001037F
:1001400000F001F8DBE71847A00A0000B00A000041
:10015000704700000023002400250026103A28BF25
:1001600078C1FBD8520728BF30C148BF0B60704729
:100170001FB51FBD10B510BD00F031F81146FFF7D7
:10018000F7FF00F07FFC00F04FF803B4FFF7F2FF39
:1001900003BC00F057F800000948804709480047B1
:1001A000FEE7FEE7FEE7FEE7FEE7FEE7FEE7FEE727
:1001B000FEE7FEE704480549054A064B7047000084
:1001C00099050008ED000008D0000020D0060020AE
:1001D000D0020020D002002070477047704775465B
:1001E00000F02CF8AE4605006946534620F00700A3
:1001F000854618B020B5FFF7DDFFBDE820404FF081
:1002000000064FF000074FF000084FF0000BAC461F
:10021000ACE8C009ACE8C009ACE8C009ACE8C0096A
:1002200021F007018D46704710B50446AFF30080FA
:100230002046BDE81040FFF7A8BF00000048704707
:100240000000002001491820ABBEFEE72600020096
:10025000704700002DE9F04F83B040F600441E4681
:1002600091468A468346C4F20104002520464FF495
:10027000805100F029F901280ED14FF08040002173
:1002800000F01EFA4FF0804000F018FA0028F9D074
:100290000135652DEAD12EE0002500BF20464FF440
:1002A000805100F011F978B94FF08040002100F042
:1002B00007FA00BF4FF0804000F000FA0028F9D0A4
:1002C0000135652DEAD116E0002500BF20464FF428
:1002D000805100F0F9F8012811D14FF08040002141
:1002E00000F0EEF94FF0804000F0E8F90028F9D076
:1002F0000135652DEAD1002003B0BDE8F08F0096EE
:1003000000250DF1070600BF00274FF0000800BFD1
:1003100020464FF4805100F0D7F80028F8D04FF075
:100320008040002100F0CCF920464FF4805100F0CD
:10033000CBF80128F8D04FF0804000F0BFF92D280D
:100340004FF0000088BF012040EA4707B8F1070FCF
:1003500008F10108DCD377550135052DD4D19DF87E
:1003600007009DF808109DF809209DF80A308BF8C9
:1003700000008AF8001000999DF80B0089F8002011
:100380000B7003B0BDE8F08FB0B582B040F600440A
:1003900041F20000C4F20104C1F20340019001A93E
:1003A000204600F031F820464FF4805100F092F8DA
:1003B000142500BF4FF08040002100F081F900BFFC
:1003C0004FF0804000F07AF9B0F57A7FF8D3013D24
:1003D0002804EFD120464FF4805100F07DF84FF013
:1003E0008040002100F06CF94FF0804000F066F989
:1003F0001E28F9D304208DF8070001A9204600F03B
:1004000003F802B0B0BD0000CA7802F00F0CD306AA
:1004100044BF8B784CEA030C2DE9F04709880B06A2
:1004200025D082465AF8144B00F1100E00254FF0EB
:1004300001094FF00F08002706E000BF1E600137DA
:10044000082F05F1040511D009FA07F60E42F6D07F
:1004500008FA05F324EA03030CFA05F41C43282ADE
:100460005346EBD0482AEAD17346E7E70460B1F57A
:10047000807F38BFBDE8F087436800F1100E00F1BF
:10048000140900254FF4807A4FF00F08002705E08B
:1004900034600137082F05F1040512D00AFA07F479
:1004A00004EA0106A642F4D108FA05F6B3430CFAB1
:1004B00005F63343282A4E46EAD0482AE9D1764643
:1004C000E6E74360BDE8F0878068084018BF012078
:1004D000704700004161704701617047002941F297
:1004E0001C01C4F202010A680CBF22EA000010439A
:1004F00008607047002941F21801C4F202010A683D
:100500000CBF22EA000010430860704710B541F2AA
:100510000404C4F20204226802F00C02082A41F228
:100520000022C0F27A0212D12368D4F800C0C3F3CB
:10053000834E5FEACC330EF1020C02D523689B0395
:1005400003D540F60012C0F23D020CFB02F202603D
:10055000226840F6D033C2F30312C0F600039A5C5F
:100560000168D14041602268C2F302229A5C21FAFC
:1005700002F282602268C2F3C2229A5C40F6CC3357
:10058000D140C1602268C0F60003C2F381329A5C98
:10059000B1FBF2F1016110BD82B041F20400C4F27E
:1005A000020050F8041C002241F0010140F8041C34
:1005B0000168CFF6FF021140016050F8041C4FF6AD
:1005C000FF72CFF6F662114040F8041C50F8041C8C
:1005D00021F4802140F8041C016821F4FE0101602F
:1005E0004FF41F01416000210191009150F8041C5B
:1005F00041F4803140F8041C50F8041C01F400312F
:100600000091019901310191009919B90199B1F550
:10061000A06FF1D150F8041C890354BF00210121BF
:1006200000910099012936D142F20001C4F2020181
:100630000A6842F010020A600A6822F007020A60A3
:100640000A6842F002020A60016801600168016004
:10065000016841F480610160016821F47C1101604E
:10066000016841F4E811016050F8041C41F0807108
:1006700040F8041C50F8041C8901FBD5016821F0E6
:1006800003010160016841F002010160016801F0AD
:100690000C010829FAD14EF60850CEF200004FF0B6
:1006A0000061016002B070470288002918BF012173
:1006B00022F001021144018070470000808C7047D5
:1006C0008184704740F6FF33B0F800C0C4F20003E5
:1006D00098420FDCB0F1804F1ED040F20043C4F2CC
:1006E0000003984218D040F60003C4F20003984279
:1006F00012D016E040F60043C4F2000398420BD03B
:1007000043F20043C4F20103984205D042F600438D
:10071000C4F20103984204D14B882CF0700243EAE2
:10072000020C41F2004240F48063C4F200029342A2
:1007300004D0CA882CF4407342EA030CA0F800C02D
:100740008A8883058285A0F18042A2F5963243EA29
:1007500092220B88072A038507D8012303FA02F2A5
:1007600012F0E50F1CBF097A0186012181827047D2
:10077000F0B585B0054604200121FFF7BBFE4FF41C
:1007800080400121FFF7B6FE43F6000440F200204E
:10079000C4F20104C1F60300A4F5405604AF04906E
:1007A00030463946FFF730FE40F20040C0F20340C9
:1007B000049030463946FFF727FE00204FF44021D1
:1007C000ADF80C00CDE9010169462046009500F026
:1007D000F5F8204640F22551012200F0D7F84EF2FC
:1007E0000410CEF20000202101602046012100F01B
:1007F000A5F805B0F0BD000070B584B0002837D072
:100800004CF6CD4C01464FF00005CCF6CC4C0DF12A
:10081000060348BF414200BFA1FB0C64E60806EB9B
:100820008604A1EB440444F03004EAB201350929FE
:1008300031469C54F0D8B0F1FF3F1DDDE8B20DF118
:1008400006060021315488B143F60004C4F20104C5
:10085000013DE8B2315C204600F010F920468021CD
:1008600000F076F80028F9D02806F1D104B070BD68
:100870000025B0F1FF3FE1DCE8B20DF106012D22C9
:1008800001350A54DAE7000010B543F60004C4F25B
:1008900001040146204600F0F1F800BF2046802107
:1008A00000F056F80028F9D010BD0000B0B504469D
:1008B0000078002808BFB0BD43F60005C4F201056A
:1008C000C1B2284600F0DAF82846802100F040F84E
:1008D0000028F9D014F8010F0028F1D1B0BD0000B4
:1008E00010B543F60004C4F20104204640F225513D
:1008F00000F034F8002808BF10BD204600F0BAF818
:1009000040F2640440F26203C2F20004C2F2000347
:10091000C2B21988207040F265000A2AC2F20000B3
:1009200008D10022425440F26000C2F200000121CE
:10093000017010BD4254481C188010BD82890029E6
:1009400018BF012122F4005242EA413181817047EF
:100950000088084018BF012070470000C1F3421210
:10096000022A06D0012A14BF00F1140200F10C0281
:1009700001E000F110021288008801F01F03090A4B
:10098000DA40C840104000F001007047C1F3421344
:1009900001F01F0C1421022B08BF1021012B4FF076
:1009A000010308BF0C21002A03FA0CF243580CBFC4
:1009B00023EA02021A4342507047000070B586B025
:1009C0000446008A0D46C98820F44050084320821E
:1009D000A0894EF6F3110840A9882A896B8908433B
:1009E00010431843A081A08AA98920F440700843CD
:1009F00001AEA0823046FFF789FD43F6000106F103
:100A00000800C4F201018C4208BF06F10C00006826
:100A10001922B4F90C1050432A680123B1F1FF3FA9
:100A2000C8BF022302FA03F1B0FBF1F048F21F51F4
:100A3000C5F2EB11A0FB01235A096FF0630302FB1F
:100A40000300B4F90C300326B3F1FF3FC8BF0426FE
:100A500000FA06F000F13200A0FB01014FF00700A0
:100A6000C8BF0F2000EA511040EA0210208106B0F2
:100A700070BD000080886FF35F2070476FF35F21C7
:100A80008180704784B04FF41650FFF771FE01204B
:100A90000121FFF723FD4FF6FF70ADF80A00472054
:100AA000CDF806000DF106014FF08040FFF70AFE79
:100AB0004FF080400121FFF7F7FD08200121FFF7EB
:100AC00019FD41F20000C1F20340CDF8060040F6E6
:100AD0000040C4F201000DF10601FFF795FC0DF195
:100AE000050501AE0DF103070FF2B80BFFF74CFC43
:100AF0000DF10600294632463B46FFF7ABFB9DF859
:100B000006A09DF805809DF8049008EB0A019DF869
:100B1000034049442144814258462DD125A0FFF786
:100B2000C5FE5046FFF768FE2E20FFF7ADFEB8F178
:100B3000000F03D04046FFF75FFE05E040F6E330CC
:100B4000C0F60000FFF7B2FE1CA0FFF7AFFE48465C
:100B5000FFF752FE2E20FFF797FE1CB12046FFF74D
:100B60004BFE05E040F6E330C0F60000FFF79EFEC6
:100B700040F6E030C0F60000FFF798FE4FF47A74BC
:100B80004FF080400021FFF79BFD00BF4FF08040F9
:100B9000FFF794FDB0F57A7FF8D3013C2004EFD144
:100BA000A4E700BF4C6F6920636865636B73756D64
:100BB000210D0A00446F20616D3A20002C204E6800
:100BC00069657420646F3A20000000000204060882
:100BD00000000000010203040102030406070809E3
:100BE0000D0A003000000000F80B00080000002093
:080BF000D006000054010008CA
:04000005080000ED02
:00000001FF
